{
  "contractName": "Ownable",
  "abi": [
    {
      "constant": true,
      "inputs": [],
      "name": "owner",
      "outputs": [
        {
          "name": "",
          "type": "address"
        }
      ],
      "payable": false,
      "stateMutability": "view",
      "type": "function"
    },
    {
      "inputs": [],
      "payable": false,
      "stateMutability": "nonpayable",
      "type": "constructor"
    },
    {
      "constant": false,
      "inputs": [
        {
          "name": "newOwner",
          "type": "address"
        }
      ],
      "name": "transferOwnership",
      "outputs": [],
      "payable": false,
      "stateMutability": "nonpayable",
      "type": "function"
    }
  ],
  "bytecode": "0x6060604052341561000f57600080fd5b336000806101000a81548173ffffffffffffffffffffffffffffffffffffffff021916908373ffffffffffffffffffffffffffffffffffffffff1602179055506101fc8061005e6000396000f30060606040526000357c0100000000000000000000000000000000000000000000000000000000900463ffffffff1680638da5cb5b14610048578063f2fde38b1461009d57600080fd5b341561005357600080fd5b61005b6100d6565b604051808273ffffffffffffffffffffffffffffffffffffffff1673ffffffffffffffffffffffffffffffffffffffff16815260200191505060405180910390f35b34156100a857600080fd5b6100d4600480803573ffffffffffffffffffffffffffffffffffffffff169060200190919050506100fb565b005b6000809054906101000a900473ffffffffffffffffffffffffffffffffffffffff1681565b6000809054906101000a900473ffffffffffffffffffffffffffffffffffffffff1673ffffffffffffffffffffffffffffffffffffffff163373ffffffffffffffffffffffffffffffffffffffff1614151561015657600080fd5b600073ffffffffffffffffffffffffffffffffffffffff168173ffffffffffffffffffffffffffffffffffffffff161415156101cd57806000806101000a81548173ffffffffffffffffffffffffffffffffffffffff021916908373ffffffffffffffffffffffffffffffffffffffff1602179055505b505600a165627a7a72305820a0b081e841defeb9c26ef3965b882f45124178d2434d6663082b29d52061f8b90029",
  "source": "/**\n *Submitted for verification at Etherscan.io on 2017-11-28\n*/\n\npragma solidity ^0.4.17;\n\n/**\n * @title SafeMath\n * @dev 具有引发错误的安全检查的数学运算\n */\nlibrary SafeMath {\n  // 乘法\n    function mul(uint256 a, uint256 b) internal pure returns (uint256) {\n        if (a == 0) {\n            return 0;\n        }\n        uint256 c = a * b;\n        assert(c / a == b);\n        return c;\n    }\n\n    // 除法\n    function div(uint256 a, uint256 b) internal pure returns (uint256) {\n        // assert(b > 0); // Solidity automatically throws when dividing by 0\n        uint256 c = a / b;\n        // assert(a == b * c + a % b); // There is no case in which this doesn't hold\n        return c;\n    }\n\n    // 减法\n    function sub(uint256 a, uint256 b) internal pure returns (uint256) {\n        assert(b <= a);\n        return a - b;\n    }\n\n    // \n    function add(uint256 a, uint256 b) internal pure returns (uint256) {\n        uint256 c = a + b;\n        assert(c >= a);\n        return c;\n    }\n}\n\n/**\n * @title Ownable\n * @dev Ownable 合约有一个所有者地址，并提供基本的授权控制功能，这简化了“用户权限”的实现。\n */\ncontract Ownable {\n    address public owner;\n\n    /**\n      * @dev Ownable 构造函数将合约的原始“所有者”设置为发送者帐户。\n      */\n    function Ownable() public {\n        owner = msg.sender;\n    }\n\n    /**\n      * @dev 如果由所有者以外的任何帐户调用，则抛出。\n      */\n    modifier onlyOwner() {\n        require(msg.sender == owner);\n        _;\n    }\n\n    /**\n    * @dev 允许当前所有者将合约的控制权转移给新所有者。\n    * @param newOwner 将所有权转移到的地址。\n    */\n    function transferOwnership(address newOwner) public onlyOwner {\n        if (newOwner != address(0)) {\n            owner = newOwner;\n        }\n    }\n\n}\n\n/**\n * @title ERC20Basic\n * @dev 简化版ERC20接口(ERC-20代币是一种代币标准)\n * @dev see https://github.com/ethereum/EIPs/issues/20\n */\ncontract ERC20Basic {\n    uint public _totalSupply;\n    function totalSupply() public constant returns (uint);\n    function balanceOf(address who) public constant returns (uint);\n    function transfer(address to, uint value) public;\n    event Transfer(address indexed id, address indexed to, uint value);\n}\n\n/**\n * @title ERC20 接口\n * @dev see https://github.com/ethereum/EIPs/issues/20\n */\ncontract ERC20 is ERC20Basic {\n    function allowance(address owner, address spender) public constant returns (uint);\n    function transferFrom(address from, address to, uint value) public;\n    function approve(address spender, uint value) public;\n    event Approval(address indexed owner, address indexed spender, uint value);\n}\n\n/**\n * @title Basic token\n * @dev StandardToken 的基本版本，没有配额。\n */\ncontract BasicToken is Ownable, ERC20Basic {\n    using SafeMath for uint;\n\n    mapping(address => uint) public balances;\n\n    // 如果需要交易费用时使用的额外变量\n    uint public basisPointsRate = 0;\n    uint public maximumFee = 0;\n\n    /**\n    * @dev 修复 ERC20 短地址攻击。\n    */\n    modifier onlyPayloadSize(uint size) {\n        require(!(msg.data.length < size + 4));\n        _;\n    }\n\n    /**\n    * @dev 转移指定地址的令牌\n    * @param _to 要转移到的地址。\n    * @param _value 要转移的金额。\n    */\n    function transfer(address _to, uint _value) public onlyPayloadSize(2 * 32) {\n        uint fee = (_value.mul(basisPointsRate)).div(10000);\n        if (fee > maximumFee) {\n            fee = maximumFee;\n        }\n        uint sendAmount = _value.sub(fee);\n        // 转出账户扣除金额\n        balances[msg.sender] = balances[msg.sender].sub(_value);\n        // 转入账户增加金额（不包含fee）\n        balances[_to] = balances[_to].add(sendAmount);\n        if (fee > 0) {\n            // token所有者获得fee \n            balances[owner] = balances[owner].add(fee);\n            // 吐出事件\n            Transfer(msg.sender, owner, fee);\n        }\n        // 吐出事件\n        Transfer(msg.sender, _to, sendAmount);\n    }\n\n    /**\n    * @dev 获取指定地址的余额。\n    * @param _owner 查询余额的地址。\n    * @return An uint 表示传递的地址拥有的金额。\n    */\n    function balanceOf(address _owner) public constant returns (uint balance) {\n        return balances[_owner];\n    }\n\n}\n\n/**\n * @title Standard ERC20 token\n *\n * @dev 基本标准代币的实现。\n * @dev https://github.com/ethereum/EIPs/issues/20\n * @dev Based oncode by FirstBlood: https://github.com/Firstbloodio/token/blob/master/smart_contract/FirstBloodToken.sol\n */\ncontract StandardToken is BasicToken, ERC20 {\n\n    mapping (address => mapping (address => uint)) public allowed;\n\n    uint public constant MAX_UINT = 2**256 - 1;\n\n    /**\n    * @dev 将代币从一个地址转移到另一个地址\n    * @param _from address 您要发送代币的地址\n    * @param _to address 您要转入的地址\n    * @param _value uint 要转移的代币数量\n    */\n    function transferFrom(address _from, address _to, uint _value) public onlyPayloadSize(3 * 32) {\n        var _allowance = allowed[_from][msg.sender];\n\n        // 不需要检查，因为如果不满足此条件， sub(_allowance, _value) 将已经抛出\n        // 如果 (_value > _allowance) 抛出;\n\n        uint fee = (_value.mul(basisPointsRate)).div(10000);\n        if (fee > maximumFee) {\n            fee = maximumFee;\n        }\n        if (_allowance < MAX_UINT) {\n            allowed[_from][msg.sender] = _allowance.sub(_value);\n        }\n        uint sendAmount = _value.sub(fee);\n        balances[_from] = balances[_from].sub(_value);\n        balances[_to] = balances[_to].add(sendAmount);\n        if (fee > 0) {\n            balances[owner] = balances[owner].add(fee);\n            Transfer(_from, owner, fee);\n        }\n        Transfer(_from, _to, sendAmount);\n    }\n\n    /**\n    * @dev 批准传递的地址代表 msg.sender 花费指定数量的代币。\n    * @param _spender 将花费资金的地址。\n    * @param _value 要花费的代币数量。\n    */\n    function approve(address _spender, uint _value) public onlyPayloadSize(2 * 32) {\n\n        // 要更改批准金额，您首先必须通过调用 `approve(_spender, 0)` 将地址限额减少为零，\n        // 如果它还不是 0 以缓解此处描述的竞争条件：\n        //  https://github.com/ethereum/EIPs/issues/20#issuecomment-263524729\n        require(!((_value != 0) && (allowed[msg.sender][_spender] != 0)));\n\n        allowed[msg.sender][_spender] = _value;\n        Approval(msg.sender, _spender, _value);\n    }\n\n    /**\n    * @dev 检查代币数量超过所有者允许消费者的功能。\n    * @param _owner address 拥有资金的地址。\n    * @param _spender address 将花费资金的地址。\n    * @return A uint 指定仍然可供消费者使用的代币数量。\n    */\n    function allowance(address _owner, address _spender) public constant returns (uint remaining) {\n        return allowed[_owner][_spender];\n    }\n\n}\n\n\n/**\n * @title Pausable\n * @dev 允许儿童实施紧急停止机制的基本合同。\n */\ncontract Pausable is Ownable {\n  event Pause();\n  event Unpause();\n\n  bool public paused = false;\n\n\n  /**\n   * @dev 允许儿童实施紧急停止机制的基本合同。\n   */\n  modifier whenNotPaused() {\n    require(!paused);\n    _;\n  }\n\n  /**\n   * @dev 仅在合约暂停时使函数可调用的修饰符。\n   */\n  modifier whenPaused() {\n    require(paused);\n    _;\n  }\n\n  /**\n   * @dev 被所有者调用暂停，触发停止状态\n   */\n  function pause() onlyOwner whenNotPaused public {\n    paused = true;\n    Pause();\n  }\n\n  /**\n   * @dev 由所有者调用以取消暂停，返回正常状态\n   */\n  function unpause() onlyOwner whenPaused public {\n    paused = false;\n    Unpause();\n  }\n}\n\ncontract BlackList is Ownable, BasicToken {\n\n    // Getter 允许其他合约（包括升级后的 Tether）也使用相同的黑名单\n    function getBlackListStatus(address _maker) external constant returns (bool) {\n        return isBlackListed[_maker];\n    }\n\n    function getOwner() external constant returns (address) {\n        return owner;\n    }\n\n    mapping (address => bool) public isBlackListed;\n    \n    function addBlackList (address _evilUser) public onlyOwner {\n        isBlackListed[_evilUser] = true;\n        AddedBlackList(_evilUser);\n    }\n\n    function removeBlackList (address _clearedUser) public onlyOwner {\n        isBlackListed[_clearedUser] = false;\n        RemovedBlackList(_clearedUser);\n    }\n\n    function destroyBlackFunds (address _blackListedUser) public onlyOwner {\n        require(isBlackListed[_blackListedUser]);\n        uint dirtyFunds = balanceOf(_blackListedUser);\n        balances[_blackListedUser] = 0;\n        _totalSupply -= dirtyFunds;\n        DestroyedBlackFunds(_blackListedUser, dirtyFunds);\n    }\n\n    event DestroyedBlackFunds(address _blackListedUser, uint _balance);\n\n    event AddedBlackList(address _user);\n\n    event RemovedBlackList(address _user);\n\n}\n\ncontract UpgradedStandardToken is StandardToken{\n    // 这些方法由旧合约调用，它们必须确保 msg.sender 是合约地址\n    function transferByLegacy(address from, address to, uint value) public;\n    function transferFromByLegacy(address sender, address from, address spender, uint value) public;\n    function approveByLegacy(address from, address spender, uint value) public;\n}\n\ncontract TetherToken is Pausable, StandardToken, BlackList {\n\n    string public name;\n    string public symbol;\n    uint public decimals;\n    address public upgradedAddress;\n    bool public deprecated;\n\n    // 合约可以用多个代币初始化\n    // 所有代币都存入所有者地址\n    //\n    // @param _balance 合同的初始供应\n    // @param _name 代币名称\n    // @param _symbol 代币符号\n    // @param _decimals 代币小数\n    function TetherToken(uint _initialSupply, string _name, string _symbol, uint _decimals) public {\n        _totalSupply = _initialSupply;\n        name = _name;\n        symbol = _symbol;\n        decimals = _decimals;\n        balances[owner] = _initialSupply;\n        deprecated = false;\n    }\n\n    // 如果不推荐使用此方法，则将 ERC20 方法转发到升级合约\n    function transfer(address _to, uint _value) public whenNotPaused {\n        // 不在黑名单内\n        require(!isBlackListed[msg.sender]);\n        if (deprecated) {\n            return UpgradedStandardToken(upgradedAddress).transferByLegacy(msg.sender, _to, _value);\n        } else {\n            return super.transfer(_to, _value);\n        }\n    }\n\n    // 如果不推荐使用此方法，则将 ERC20 方法转发到升级合约\n    function transferFrom(address _from, address _to, uint _value) public whenNotPaused {\n        require(!isBlackListed[_from]);\n        if (deprecated) {\n            return UpgradedStandardToken(upgradedAddress).transferFromByLegacy(msg.sender, _from, _to, _value);\n        } else {\n            return super.transferFrom(_from, _to, _value);\n        }\n    }\n\n    // 如果不推荐使用此方法，则将 ERC20 方法转发到升级合约\n    function balanceOf(address who) public constant returns (uint) {\n        if (deprecated) {\n            return UpgradedStandardToken(upgradedAddress).balanceOf(who);\n        } else {\n            return super.balanceOf(who);\n        }\n    }\n\n    // 如果不推荐使用此方法，则将 ERC20 方法转发到升级合约\n    function approve(address _spender, uint _value) public onlyPayloadSize(2 * 32) {\n        if (deprecated) {\n            return UpgradedStandardToken(upgradedAddress).approveByLegacy(msg.sender, _spender, _value);\n        } else {\n            return super.approve(_spender, _value);\n        }\n    }\n\n    // Forward ERC20 methods to upgraded contract if this one is deprecated\n    function allowance(address _owner, address _spender) public constant returns (uint remaining) {\n        if (deprecated) {\n            return StandardToken(upgradedAddress).allowance(_owner, _spender);\n        } else {\n            return super.allowance(_owner, _spender);\n        }\n    }\n\n    // 弃用当前合同以支持新合同\n    function deprecate(address _upgradedAddress) public onlyOwner {\n        deprecated = true;\n        upgradedAddress = _upgradedAddress;\n        Deprecate(_upgradedAddress);\n    }\n\n    // 如果支持新合同，则弃用当前合同\n    function totalSupply() public constant returns (uint) {\n        if (deprecated) {\n            return StandardToken(upgradedAddress).totalSupply();\n        } else {\n            return _totalSupply;\n        }\n    }\n\n    // 发行新数量的代币，这些代币存入所有者地址\n    //\n    // @param _amount Number of tokens to be issued\n    function issue(uint amount) public onlyOwner {\n        require(_totalSupply + amount > _totalSupply);\n        require(balances[owner] + amount > balances[owner]);\n\n        balances[owner] += amount;\n        _totalSupply += amount;\n        Issue(amount);\n    }\n\n    // 兑换代币。\n    // 如果余额必须足以支付赎回，则这些代币将从所有者地址中提取，否则调用将失败。\n    // @param _amount Number of tokens to be issued\n    function redeem(uint amount) public onlyOwner {\n        require(_totalSupply >= amount);\n        require(balances[owner] >= amount);\n\n        _totalSupply -= amount;\n        balances[owner] -= amount;\n        Redeem(amount);\n    }\n\n    function setParams(uint newBasisPoints, uint newMaxFee) public onlyOwner {\n        // 通过硬编码限制确保透明度，超过该限制永远不会增加费用\n        require(newBasisPoints < 20);\n        require(newMaxFee < 50);\n\n        basisPointsRate = newBasisPoints;\n        maximumFee = newMaxFee.mul(10**decimals);\n\n        Params(basisPointsRate, maximumFee);\n    }\n\n    // Called when new token are issued\n    event Issue(uint amount);\n\n    // Called when tokens are redeemed\n    event Redeem(uint amount);\n\n    // Called when contract is deprecated\n    event Deprecate(address newAddress);\n\n    // Called if contract ever adds fees\n    event Params(uint feeBasisPoints, uint maxFee);\n}",
  "sourcePath": "/home/xsh/Desktop/script/subgraph-TetherToken/contracts/TetherToken.sol",
  "compiler": {
    "name": "solc",
    "version": "0.4.17+commit.bdeb9e52.Emscripten.clang"
  },
  "schemaVersion": "3.4.10",
  "updatedAt": "2022-10-10T11:06:06.757Z",
  "devdoc": {
    "methods": {
      "transferOwnership(address)": {
        "details": "允许当前所有者将合约的控制权转移给新所有者。",
        "params": {
          "newOwner": "将所有权转移到的地址。"
        }
      }
    },
    "title": "Ownable"
  },
  "userdoc": {
    "methods": {}
  }
}